:020000040800F2
:1000000088040020A10F0008CD0E0008CF0E0008C4
:1000100000000000000000000000000000000000E0
:10002000000000000000000000000000D10E0008E9
:100030000000000000000000D30E0008D50E0008EC
:100040005F070008DB070008570B00087B0B000860
:100050007F0F00088B0F0008C50F0008ED0E000889
:10006000C70F0008C90F0008CB0F0008CD0F00080C
:10007000CF0F0008D10F0008D30F0008D50F0008DC
:10008000D70F0008D90F0008DB0F0008DD0F0008AC
:10009000DF0F0008E10F0008E30F0008E50F00087C
:1000A000E70F0008E90F0008EB0F0008DD0E00085D
:1000B000ED0F0008EF0F0008F10F0008F1B582B056
:1000C0008F4C0078C00700D42FE18025AD02606816
:1000D0000C21014004290BD060680C210140082943
:1000E0000FD16068C021490201406808814208D1EF
:1000F0002068054038D002984068002826D10120A9
:10010000FEBD02984168012902D1206869080BE010
:100110007C487D4A00290AD0052908D12068690059
:10012000014321602068D1430143216005E021683B
:100130000A40226021680840206002984068002838
:100140000DD000F0D9FA06002068284000D0ECE07D
:1001500000F0D2FA801B6528F6D30320FEBD00F024
:10016000CBFA06002068284000D1DEE000F0C4FA97
:10017000801B6528F6D3F0E700F0BEFA801B02284A
:1001800000D806E1E9E70298C068002820680FD08F
:1001900001210143216000F0AFFA060020688007CA
:1001A00000D5DEE000F0A8FA801B0228F6D9D4E7DB
:1001B00001218843206000F09FFA06002068800734
:1001C00000D4D6E000F098FA801B0228F6D9C4E7E4
:1001D00001218843606200F08FFA0600606A8007A0
:1001E00000D4DAE000F088FA801B0228F6D9B4E7E0
:1001F0000420C0430122D24300290AD0052908D196
:10020000206A042101432162206A01210143216205
:1002100005E0216A0A402262216A08402062B54F47
:100220000298806800280CD000F066FA0600206A68
:10023000800700D5E0E000F05FFA801BB842F6D3FB
:100240008BE700F059FA0600206A800700D4D3E05B
:1002500000F052FA801BB842F6D37EE700F04CFA69
:10026000801B022800D8E4E077E700F045FA801B05
:10027000022800D817E170E70421C9438842606B67
:1002800003D1042188436063D7E004210143616303
:10029000606B01218843606300F02EFA0600606BFA
:1002A000800700D4D0E000F027FA801B0228F6D99E
:1002B00053E780277F020298006A0028606B0ED007
:1002C0003843606300F018FA0600606B384000D0D5
:1002D000D4E000F011FA801B0228F6D93DE70A4964
:1002E0000140616300F008FA0600606B384000D1FD
:1002F000C4E000F001FA801B0228F6D92DE700BF08
:1003000000100240FFFFFBFFFFFFFEFF01402160E6
:1003100000F0F2F906002068800100D4E8E000F067
:10032000EBF9801B0228F6D917E70C250298007814
:1003300080071ED5606828400BD0606828400828D8
:1003400005D160686903014080200002814200D02D
:1003500019E72068800704D50298C068012800D0FA
:10036000CDE62068F821884302990969C900014354
:1003700021600298007800070FD50298C069002814
:10038000606A00D124E701210143616200F0B4F901
:100390000600606A800700D4EEE602980078400705
:1003A00031D50020009080204005E169014008D14E
:1003B000E1690143E161E169084000900098012092
:1003C0000090A24F3868C0050FD43868A10D0143D2
:1003D000396000F091F906003868C00505D400F0D6
:1003E0008BF9801B6528F7D3B7E60298816801294D
:1003F00000D0FDE6206A09E70098002803D0E069F4
:1004000093490140E16102980078C0061CD502982A
:100410004069F827FF43012800D02DE7606B0421D5
:1004200001436163606B01210143616300F064F982
:100430000600606B800700D410E7606B07400298ED
:100440008069C0003843606302980078800615D543
:10045000606828400C2809D060682840082803D12B
:10046000680361680140814200D022E7606BC003ED
:1004700004D50298006A012800D040E60298406A3C
:10048000002835D061680D40082D00D137E6874936
:100490000228206800D039E70140216000F02CF9E3
:1004A00006008025AD042068284000D0DDE6E06A23
:1004B0000F2188430299096B0143E16260687C491E
:1004C00001400298C06A08430299896A0143616049
:1004D000206869080143216000F00EF906002068D9
:1004E000284005D100F008F9801B0228F7D934E62E
:1004F0000020FEBD89130000F3B581B00127FF4342
:1005000001246C4909682140029A91420AD2694942
:100510000A683A40029B13430B6009682140029A23
:10052000914222D10090644D022000990968014057
:1005300006D06968F0229143009A92680A436A6083
:1005400000990968214063D000994968012902D1C6
:100550002868800308E0022902D12868800103E0AE
:10056000032903D1686BC00303D461E02A681040FB
:100570005ED06868032290430143696000F0BCF8D4
:1005800006000098406801280CD168680C210140E1
:1005900004293DD000F0B0F8801B48498842F4D3CC
:1005A0000320FEBD02280BD168680C2101400829F8
:1005B0002ED000F0A1F8801B40498842F4D3EFE729
:1005C000032837D168680C2101400C2920D000F0A5
:1005D00093F8801B39498842F4D3E1E7009800780A
:1005E000400706D56868364901400098C06808434E
:1005F000686000F02FF833496A681206120F895CB0
:10060000C84031490860032000F07CF80020FEBD9E
:1006100028480299026822409142DFD201680F40C7
:100620000299394301600068044002988442D5D0A1
:100630000120FEBD68680C210140E9D000F05CF8A3
:10064000801B1E498842F5D3AAE7000000700040D5
:10065000FFFFFFEFF0B51D490B681D481D4A0C2434
:100660001C40082C02D00C2C1AD0F0BD0F2500BF66
:1006700019A49E0C2E40A45D1BA6896A0D40715DD5
:10068000C0256D022E001E4080277F02BE4203D08F
:100690002B40AB4200D1100000F046F86043F0BDA3
:1006A0001000F0BD0848006870470000FFFFFFFE23
:1006B000FF7FC2FF002002400010024089130000AB
:1006C000FFF8FFFF500E0008040000200410024055
:1006D00000127A00006CDC02020304050607080918
:1006E0000A0B0C0D0E0F101001020304050607087B
:1006F000090A0B0C0D0E0F1001480068704700BF6F
:100700008000002010B50400FFF7CCFFFA2189001B
:1007100000F00AF800F045F8002221000020C04354
:1007200000F03BF8002010BD094214D088420FD3DE
:100730000122030C01D100041204002300185B41C4
:100740008B4200D35B1A5241F8D319001000704756
:1007500001000020704708B500F03EF808BDFEE734
:1007600010B5C20018231340FF249C40E2438907C0
:10077000090E9940030004D414489B089B00C0183C
:1007800006E0134B0007000F083880088000181897
:1007900003681A401143016010BD80B5FFF7E0FF08
:1007A00001BD10B5401E80214904884201D30120BB
:1007B00010BD084C606003210020C043FFF7D0FF4C
:1007C0000020A0600721216010BD000000E400E0CF
:1007D0001CED00E010E000E07047FEE770B504009B
:1007E0002368D869196805072D0F07D1820605D53A
:1007F0008A0603D5200000F0E4F870BD9A68002D49
:1008000063D001252A4203D1902676000E405CD0A9
:10081000C60705D5CE0503D51D62E36E1D43E5660B
:1008200004230225860706D5D60704D52668356237
:10083000E66E1E43E666460706D5D60704D526684B
:100840003362E36E1D43E5660825030708D58B0672
:1008500001D4D20704D522681562E26E2A43E2660B
:10086000E26E002A50D0800604D5880602D520000A
:1008700000F0A7F84026E06E054003D120688068AC
:1008800030401CD0200000F043F8206881680E4002
:1008900011D08168402291438160606E00280AD0A7
:1008A0001A494163606E00F0C7F800282CD0606ED2
:1008B000416B884770BD200000F033F970BD200007
:1008C00000F02FF90020E06670BDC5020DD5520280
:1008D0000BD5802040031862200069302021017070
:1008E0004170200000F036F970BD020605D50A06F9
:1008F00003D5200000F024F870BD400604D548065A
:1009000002D5200000F050F870BD00002D0900084D
:1009100001680A68474B13400B6001688A6801232D
:100920009A438A6020216A228154704780B5406AC8
:100930000100523100220A810A8000F0F2F801BD64
:1009400001005231CA7D212A2CD15222825A002A1A
:100950000AD101680A6880239A430A600068016826
:1009600040220A4302601BE0826880235B019A42B6
:100970000CD10269002A09D1C26C1288D205D20DAD
:1009800003681A85C26C921CC26405E0C26C531CD9
:10099000C364127803681A855222805A401E088068
:1009A000002070470220704780B501680A68402324
:1009B0009A430A6020216922815400F0A6F80020A1
:1009C00002BD38B501005A314A8803680C7C222CDC
:1009D0002AD19B8C846880256D01AC4209D10469C1
:1009E000002C06D11A40436D1A80426D921C42655C
:1009F00004E0446D651C45651A4022705A22825AF3
:100A0000521E0A8012040DD102681368094C1C4062
:100A10001460026893680124A343936020220A743F
:100A200000F077F8002032BD9869082101439961F0
:100A3000022032BDDFFEFFFF70B50022002401213D
:100A40002123C35C022B03D004228263012415E01E
:100A500003681D680E26B5431D6003681D688D433D
:100A60001D60036C01259D40C36B5D602123C15453
:100A700020214254416B002900D08847200070BDDE
:100A800030B585B000F068F800F01DF8002000F0E7
:100A900075F8802424020094012001900020029027
:100AA000032003909025ED056946280000F0A6F884
:100AB0002100280000F06CF9002000F08DF864207F
:100AC00000F086F9F4E730B591B0202004900120C1
:100AD0000C9002240D94C02149020E911090002523
:100AE0000F9504A8FFF7EAFA002800D0FEE70720D8
:100AF000009001940295039501216846FFF7FCFCE4
:100B0000002800D0FEE711B030BD01200F49087069
:100B100070470E495822805A48800120487008705A
:100B2000704780B5002000F049F8002000F054F82C
:100B3000FA20800000F04CF9F7E780218901884213
:100B400002D10120024908607047000078000020AF
:100B50007C0000207047FEE780B50648016810223F
:100B60000A4302600320FFF7CDFD00F005F80020E6
:100B700002BD0000002002407047FEE780B586B04D
:100B8000010009D180218902194A13680B431360BF
:100B9000126811400091009917A14200895A0191F1
:100BA00001210291002103910321049101A9114A1D
:100BB0008000105800F022F807B000BD80B5012277
:100BC00000E000000CA14300C95A0A4B80001858ED
:100BD00000F0D8F801BD000080B500BF06A14200BA
:100BE000895A044A8000105800F0D2F801BD000074
:100BF000141002400000002020000000FFB50A0091
:100C00000023010031E0052403E069488142FAD164
:100C10000424AC4034430298046066480568019E91
:100C2000F44325405668F60302D52E00019D354356
:100C30000560456825405668B60302D52E00019D23
:100C400035434560856825405668F60202D52E007A
:100C5000019D35438560C5682C405568AD0202D5BD
:100C60002500019C2C43C4605B1C10680400DC4020
:100C700000D186E0012401259D40039505400195A2
:100C800001980028F0D098006D46687050680228DE
:100C900001D0122811D1D80880000D18286A6E469C
:100CA00077781C263E400F27B740B8431769BC46EB
:100CB00037006646BE4006432E620D6858006E46F9
:100CC0003070032037780326BE40F74302973E4634
:100CD0002E40556805406F463F78BD4035430D6056
:100CE0005568012D05D0022D03D0112D01D0122DF4
:100CF00011D18E68029D3540D6686F463F78BE4060
:100D00002E438E604D68039EB543566836092640D3
:100D10009E402E434E60CE68029D354096686F46D9
:100D20003F78BE402E43CE605568ED009CD5224DE5
:100D30002D682543204E3560356825400295029D7B
:100D40001E4D9E08B600AD1902952E686D466F784F
:100D50000C253D400F27AF40BE439027FF05B94209
:100D600001D1002455E7164FB942FBD0154CA142E2
:100D700001D102244DE7144CA14200D045E70324E1
:100D800047E7FFBD002A01D081617047816270474B
:100D900042694A40426170470C4A1368034000D1DF
:100DA000704780B51060FFF7C8FE01BD000000006D
:100DB00000100048000401401810024008000140E3
:100DC0000004004800080048000C004814040140DA
:100DD00031B5FFF791FC0400009D0020C04385421F
:100DE00000D06D1CFFF788FC001BA842FAD331BD70
:100DF0001148016801220A43026041680F4A0A4013
:100E0000426001680E4A0A40026001680D4A0A40C9
:100E1000026041680C4A0A404260C16A0F22914355
:100E2000C162016B094A0A400263416B012291438E
:100E30004163002181607047001002400CB8FF0838
:100E4000FFFFF6FEFFFFFBFFFFFFC0FFACFEF0FF62
:100E5000000000000000000001020304060708096A
:100E600070B40123002413E00168001D194202D070
:100E70004D466D1E49190C60091D121F042AFAD235
:100E80000D00960701D50C80AD1C1A4000D02C70C7
:100E90000268001D002AE7D170BC704730B40122FF
:100EA0000168001D00290FD00368C318446808308A
:100EB000144202D04D466D1E64191D6825601B1D2D
:100EC000241D091FECD0F8E730BC70477047FEE7DF
:100ED0007047704780B500F00FF801BD80B502483B
:100EE000FFF77CFC01BD00000800002080B58020D9
:100EF0008001FFF751FF01BD02480168491C0160F4
:100F0000704700BF8000002010B5074979441831B0
:100F1000064C7C44163404E0081D0A68891888478A
:100F20000100A142F8D110BD080000002800000017
:100F300031FFFFFF7C0000000800002000000000DF
:100F40005DFFFFFF080000007400000000000020AB
:100F50000000000000F00DF8002801D0FFF7D4FFDA
:100F600000BF00BF002000BF00BFFFF789FD00F0F9
:100F700002F80120704780B500F002F801BDFEE7DD
:100F80000746384600F002F8FBE7FEE780B500BFF1
:100F900000BF024A11001820ABBEFBE7260002008A
:100FA0000148804701480047F10D0008B10F0008D3
:100FB00000BF00BF00BF00BFFFF7CCFF000000482C
:100FC00000127A00FEE7FEE7FEE7FEE7FEE7FEE737
:100FD000FEE7FEE7FEE7FEE7FEE7FEE7FEE7FEE7E9
:100FE000FEE7FEE7FEE7FEE7FEE7FEE7FEE7FEE7D9
:020FF000FEE71A
:0400000508000FB12F
:00000001FF
